:020000040800F2
:100000000008002029020008D31600088D140008FB
:10001000D11600081F040008A71A000800000000FD
:10002000000000000000000000000000D7160008DB
:100030002104000800000000D5160008D9160008A9
:10004000430200084302000843020008430200087C
:10005000430200084302000843020008430200086C
:10006000430200084302000843020008430200085C
:10007000430200084302000843020008430200084C
:10008000430200084302000843020008430200083C
:10009000430200084302000843020008430200082C
:1000A000430200084302000843020008430200081C
:1000B0008117000895170008A917000843020008D7
:1000C00043020008430200084302000843020008FC
:1000D00043020008430200084302000843020008EC
:1000E00043020008430200084302000843020008DC
:1000F00043020008430200084302000843020008CC
:1001000043020008430200084302000843020008BB
:1001100043020008430200084302000843020008AB
:10012000430200084302000843020008430200089B
:10013000430200084302000843020008430200088B
:10014000430200084302000843020008430200087B
:10015000430200084302000843020008430200086B
:10016000430200084302000843020008430200085B
:100170004302000843020008430200080000000098
:10018000430200084302000800F002F800F03CF8C7
:100190000AA090E8000C82448344AAF10107DA45E2
:1001A00001D100F031F8AFF2090EBAE80F0013F0F8
:1001B000010F18BFFB1A43F0010318472835000050
:1001C00048350000103A24BF78C878C1FAD85207E1
:1001D00024BF30C830C144BF04680C6070470000C1
:1001E0000023002400250026103A28BF78C1FBD840
:1001F000520728BF30C148BF0B6070471FB502F0DF
:10020000B4FD1FBD10B510BD00F0CFF81146FFF7CB
:10021000F5FF01F09FFC00F0EDF803B4FFF7F2FFEB
:1002200003BC00F0F5F80000094880470948004782
:10023000FEE7FEE7FEE7FEE7FEE7FEE7FEE7FEE796
:10024000FEE7FEE704480549054A064B70470000F3
:100250007117000889010008000200200008002032
:10026000000400200004002053EA020C00F0698022
:100270002DE9F04B4FF00006002B1FBFB3FA83F5BA
:1002800003FA05F424FA05F65E4012BF1643B2FAEB
:1002900082F502FA05F4C5F120051EBF22FA05FC1D
:1002A00044EA0C04203556EA044C4FEA144418BFC3
:1002B000641C4FF000084FF00009904271EB030CF2
:1002C00039D3002919BFB1FA81F701FA07F6B0FA5C
:1002D00080F700FA07F6C7F120071EBF20FA07FCD7
:1002E00046EA0C062037B6FBF4FCA7EB0507103FE7
:1002F00007F01F0BCBF120060CFA0BFB2CFA06F6CD
:1003000044BFB3460026202FA4BF5E464FF0000B2B
:100310005BEA060C08BF4FF0010B19EB0B09ABFBB6
:10032000027C48EB0608C01B06FB02CC0BFB03CC8F
:1003300071EB0C01C1E70B46024641464846BDE859
:10034000F08B13B54FF000004FF00001AFF30080C9
:10035000BDE81C4070474FF0000200B513469446BC
:100360009646203922BFA0E80C50A0E80C50B1F10D
:100370002001BFF4F7AF090728BFA0E80C5048BF21
:100380000CC05DF804EB890028BF40F8042B08BFBF
:10039000704748BF20F8022B11F0804F18BF00F8BB
:1003A000012B7047704770477047754600F02CF876
:1003B000AE4605006946534620F00700854618B052
:1003C00020B5FFF73FFFBDE820404FF000064FF09B
:1003D00000074FF000084FF0000B21F00701AC467A
:1003E000ACE8C009ACE8C009ACE8C009ACE8C00999
:1003F0008D46704710B50446AFF300802046BDE837
:100400001040FFF70ABF0000004870479C01002021
:1004100001491820ABBEFEE7260002007047FEE748
:10042000704700002DE9F84FDFF8BCA1002201253C
:1004300003264FF00F090AF1040BAAF1040E00BFC6
:100440000B6805FA02F42340A34270D10F7907F03C
:100450000307012F01D0022F16D187684FEA420807
:1004600006FA08FC27EA0C07D1F80CC00CFA08FCC5
:100470004CEA070CC0F808C04768A7430C79C4F3DE
:10048000001494403C4344600C79E443A4070AD030
:10049000C4684FEA420C06FA0CF7BC438F6807FAAF
:1004A0000CF72743C7600C7904F00304022C12D127
:1004B000D40800EB840CDCF820405707FF0E09FA43
:1004C00007F824EA0804D1F8108008FA07F848EA87
:1004D0000408CCF8208004684FEA420C06FA0CF7B6
:1004E000BC430F7907F0030707FA0CF727430760AF
:1004F0004C6814F4403F70D03C4C276847F4804768
:100500002760246822F0030704F480440094384CE8
:1005100007EB040CDCF8084897074FEA177809FA4C
:1005200008F7BC43334FB84202D1002724E054E01F
:10053000314FB84201D101271EE0304FB84201D1FE
:10054000022719E02E4FB84201D1032714E02D4FA6
:10055000B84201D104270FE02B4FB84201D1052743
:100560000AE02A4FB84201D1062705E0284FB842D9
:1005700001D1072700E0082707FA08F72743CCF83E
:100580000878DAF800405746D1F804C09C435FEA87
:10059000CC2C00D51C433C60DBF800405F46D1F812
:1005A00004C09C435FEA8C2C00D51C433C60DEF801
:1005B00000407746D1F804C09C435FEA8C3C00D5EC
:1005C0001C433C60084F083F3C68D1F804C09C4382
:1005D0005FEACC3C00D51C433C60521C102AFFF45F
:1005E0002FAFBDE8F88F0000083C014044380240BE
:1005F00000300140000002400004024000080240B8
:10060000000C02400010024000140240001802409A
:10061000001C024001488068704700006C00002008
:100620000248816802781144816070476C000020A4
:100630000B4810B5016841F400710160016841F494
:1006400080610160016841F480710160032000F065
:100650006FF80F2000F006F800F024F8002010BD1D
:10066000003C024070B50D4D04464FF47A71287875
:10067000B1FBF0F00A490968B1FBF0F000F0EAFACA
:1006800048B9102C07D200222146501E00F030F845
:1006900000206C6070BD012070BD00006C00002067
:1006A000780000200A4808B5016841F480410160E3
:1006B000006800F4804000900548001F016841F088
:1006C00080510160006800F08050009008BD00007B
:1006D00044380240002809DB00F01F02012191404C
:1006E0004009800000F1E020C0F8001170470000D0
:1006F000F0B40E4B1B680C46C3F30223C3F107058D
:10070000042D00D90425191D072901D2002300E07A
:10071000DB1E012606FA05F1491E214099409E4044
:10072000761E16403143F0BC01F0BEB90CED00E07E
:10073000064900F0070208684FF6FF03184040EA38
:100740000220034A10430860704700000CED00E0EF
:100750000000FA052DE9F0470E46050065D0DFF8E8
:100760001481D8F80000F7B200F00700B04207D2B9
:1007700088F80070D8F8000000F00700B04254D1AB
:1007800028683D4C810712D5400703D5206840F406
:10079000E05020602878000703D5206840F46040CE
:1007A00020602068A96820F0F000084320602878C5
:1007B000C0072DD0304968680839012812D00228B6
:1007C00013D0032811D00968890700292DDA216880
:1007D00021F0030101432160FFF71CFF814641F234
:1007E000883A0EE009688903EFE709688901ECE7B8
:1007F000FFF710FFA0EB0901514502D90320BDE826
:10080000F0872068696800F00C00B0EB810FEFD131
:10081000D8F80010404601F00701B14207D907702F
:10082000006800F00700B04201D00120E7E7287817
:10083000400705D52068E96820F4E05008432060AF
:100840002878000706D52068296920F4604040EA2E
:10085000C100206000F018F82168084AC1F30311B4
:10086000515CC8400649086006480068FFF7FAFE78
:100870000020C4E7003C024008380240D43600089B
:100880007800002070000020154810B5006810F0B6
:100890000C02144813D04110042A0FD0082A0ED19C
:1008A0000F4C241F2268236802F03F025B0207D529
:1008B0002068C0F38810A0FB010106E0084610BDC7
:1008C0002168C1F38811A1FB00010023FFF7CCFCD4
:1008D0002168C1F30141491C4900B0FBF1F010BD92
:1008E000083802400024F4002DE9F84F04006ED0CF
:1008F0002078DFF84C93C007A9F104054AD009F12C
:1009000004000168C1F38101012908D00068C0F327
:10091000810002280AD1D9F80000400206D52868D3
:10092000800337D560680028E1D033E06068B0F517
:10093000803F10D0B0F5A02F286810D020F4803070
:100940002860286820F4802028606068A8B1FFF73C
:1009500061FE06460DE0286840F48030F4E740F47C
:1009600080202860F7E700BFFFF754FE801B642853
:1009700073D828688003F7D50CE0FFF74BFE0646D6
:1009800005E000BFFFF746FE801B6428F0D828680A
:100990008003F7D42078DFF8AC8280074FF0000A9C
:1009A0003ED5A748001D016811F00C0F08D0006863
:1009B000C0F3810002280BD1D9F80000400207D40F
:1009C0002868800716D5E068012800D112E033E1DD
:1009D000E068B8B10120C8F80000FFF71BFE06462A
:1009E00005E000BFFFF716FE801B0228C0D828686C
:1009F0008007F7D52868216920F0F80040EAC10097
:100A000028600DE0C8F800A0FFF704FE064604E0E9
:100A1000FFF700FE801B02281FD828688007F7D444
:100A20002078000722D5864F87486169703771B1F9
:100A300001210160FFF7EEFD064604E0FFF7EAFD45
:100A4000801B022809D838688007F7D50EE0C0F867
:100A500000A0FFF7DFFD064605E082E0FFF7DAFDC4
:100A6000801B02287DD838688007F7D4207840079B
:100A700068D5DFF8CCB100270BF13C0BDBF80000A8
:100A8000C0000BD4DBF8001041F08051CBF800100F
:100A9000DBF80000012700F0805000906B4E3068BA
:100AA000C00510D4306840F480703060FFF7B2FDAC
:100AB000009005E0FFF7AEFD0099401A022850D8DB
:100AC0003068C005F6D55E4EA0686C3601280FD0A0
:100AD0000528306810D020F001003060306820F028
:100AE00004003060A068B8B1FFF794FD00900FE0FB
:100AF000306840F00100F4E740F004003060F7E7B0
:100B0000FFF788FD0099411A41F28830814266D88A
:100B100030688007F4D50EE0FFF77CFD009007E019
:100B2000FFF778FD0099411A41F28830814256D88A
:100B300030688007F4D42FB1DBF8001021F0805129
:100B4000CBF80010A069C8B33D49091D0968C1F37D
:100B5000810102294AD00228504607D0C8F8600017
:100B600000E03CE0FFF756FD04463BE04746C8F88E
:100B70006000FFF74FFD064605E000BFFFF74AFDA6
:100B8000801B02282BD828688001F7D4D4E90701FC
:100B90000843A16A2E4A490802EB0141626A41EA10
:100BA0008211084394F82C1040EA0161C9F8001042
:100BB00001203866FFF72EFD044606E03EE000BF48
:100BC000FFF728FD001B022809D828688001F7D507
:100BD00034E000BFFFF71EFD001B022802D90320EE
:100BE000BDE8F88F28688001F4D427E00128F7D009
:100BF000D9F80000E26900F4800191421CD1226A18
:100C000000F03F01914217D147F6C071626A01407E
:100C1000B1EB821F10D1A26A4FF0FF3300F44031D4
:100C200003EB5202B1EB024F06D194F82C1000F006
:100C30007060B0EB016F01D00120D1E70020CFE759
:100C40000438024000004742800E474200700040D6
:100C50000000FFFF10B5401EB0F1807F01D30120DE
:100C600010BD4FF0E02460610F21601700F01CFF01
:100C70000020A06107202061002010BD7047704750
:100C800010B590F83C20012A22D0012280F83C20A7
:100C9000CA688C6822F4407222434C6822F4806255
:100CA00022430C6822F4006222430C6922F4805231
:100CB00022434C6922F400522243C969002322F4E2
:100CC00080420A4301684A6480F83C30002010BD2D
:100CD000022010BD70B590F83C20012A32D00124CA
:100CE00080F83C40022280F83D2003685A689D68E5
:100CF00022F070060A6832435A60134B02689A4227
:100D000014D0B2F1804F11D0104B9A420ED0104B3C
:100D10009A420BD00F4B9A4208D00F4B9A4205D003
:100D20000E4B9A4202D00E4B9A4204D1496825F0EC
:100D300080031943916080F83D40002180F83C1009
:100D4000084670BD022070BD000001400004004054
:100D500000080040000C0040000401400040014039
:100D60000018004010B50446022249B104290ED0F3
:100D7000082913D094F84500012816D0012010BD91
:100D800094F842000128F9D184F842200FE094F849
:100D900043000128F2D184F8432008E094F844008D
:100DA0000128EBD184F8442001E084F84520042296
:100DB000206800F074FD2068416C41F400414164FA
:100DC00011492068884214D0B0F1804F11D00F49EA
:100DD00088420ED00E4988420BD00E49884208D076
:100DE0000D49884205D00D49884202D00C498842FD
:100DF00004D1816801F00701062903D0016841F0A0
:100E000001010160002010BD00000140000400400D
:100E100000080040000C0040000401400040014078
:100E20000018004010B5040003D094F83D0010B144
:100E300007E0012010BD002084F83C00204600F0AF
:100E40001FF8022084F83D00211D206800F0B6FC48
:100E5000012084F8460084F83E0084F83F0084F8BE
:100E6000400084F8410084F8420084F8430084F88C
:100E7000440084F8450084F83D00002010BD0000C7
:100E800008B501681D48B1F1804F11D01C4A91424C
:100E90001DD1016841F0020101600068002200F0EC
:100EA0000200009002211D20FFF722FC1D201FE000
:100EB000016841F0010101600068002200F00100BA
:100EC000009001211C20FFF713FC1C2010E00D4AAC
:100ED000914211D1016841F00401016000680022D3
:100EE00000F00400009003211E20FFF701FC1E20EB
:100EF000BDE80840FFF7EEBB08BD000040380240E7
:100F0000000400400008004090F83D10012901D085
:100F100001207047022180F83D100168CA6842F044
:100F20000102CA6000681149884214D0B0F1804FB4
:100F300011D00F4988420ED00E4988420BD00E497D
:100F4000884208D00D49884205D00D49884202D018
:100F50000C49884204D1816801F00701062903D0B9
:100F6000016841F00101016000207047000001406C
:100F70000004004000080040000C00400004014054
:100F8000004001400018004070B5044690F83C0055
:100F90000025012817D0012684F83C60022084F83F
:100FA0003D002068826822F0770222F47F4282604E
:100FB0000868502838D00DDC20284FD005DC90B3CD
:100FC000102811D14AE0022070BD302846D04028B8
:100FD0000AD13BE060282FD070280DD0B0F5805F9B
:100FE00003D0B0F5005F12D0012584F83D600020E9
:100FF00084F83C00284670BDCB68D1E90121206807
:1010000000F05AFC2068816841F0770109E0CB6864
:10101000D1E90121206800F04FFC2068816841F48B
:1010200080418160E1E719E0CA684968206800F002
:1010300017FD5021206806E0CA684968206800F062
:1010400020FD6021206800F041FCCEE7CA684968B5
:10105000206800F005FD40212068F4E72268014681
:101060001046F0E7704770B50446006801694FF01C
:101070000005C943890715D4C168C943890711D43C
:10108000E91E0161012020772068806980072046E1
:1010900002D0FFF7E7FF04E000F0E8F8204600F098
:1010A0008DF9257720680169C943490717D4C168BC
:1010B000C943490713D46FF004010161022020776E
:1010C0002068806910F4407F204602D0FFF7CAFFF5
:1010D00004E000F0CBF8204600F070F92577206896
:1010E0000169C943090716D4C168C943090712D465
:1010F0006FF008010161042020772068C069800733
:10110000204602D0FFF7AEFF04E000F0AFF8204623
:1011100000F054F9257720680169C943C90617D43E
:10112000C168C943C90613D46FF0100101610820DA
:1011300020772068C06910F4407F204602D0FFF776
:1011400091FF04E000F092F8204600F037F925778F
:1011500020680169C943C90708D1C168C943C907E3
:1011600004D1891E0161204600F08EF920680169D2
:10117000C943090609D4C168C943090605D46FF0FB
:10118000800101612046FFF779FD20680169C943AC
:10119000490609D4C168C943490605D46FF0400126
:1011A0000161204600F071F920680169C943890690
:1011B0000BD4C168C943890607D46FF020010161CF
:1011C0002046BDE87040FFF75ABD70BD70B586B0CF
:1011D000044614216846FFF7BEF81F49206888427C
:1011E00037D11E480025016841F001010160016806
:1011F00001F001010591016841F0020101600168FF
:1012000001F002010591016841F0100101600068E0
:10121000022400F01000059080208DE831000126A6
:10122000CDE9034669460E48FFF7FCF803208DE838
:101230003100CDE9034669460A48FFF7F3F84FF459
:1012400028508DE83100CDE9034669460648FFF78E
:10125000E9F806B070BD00000000014030380240DF
:10126000000002400004024000100240704770B5C8
:10127000044690F83C0000260D4601280FD00120BE
:1012800084F83C006AB1042A1DD0082A2FD00C2A09
:101290003FD00126002084F83C00304670BD02207B
:1012A00070BD206800F01AFB2068816941F00801D8
:1012B00081612068816921F0040181612068816970
:1012C0002A69114311E0206800F038FB2068816929
:1012D00041F4006181612068816921F4806181614C
:1012E000206881692A6941EA02218161D2E7206888
:1012F00000F05AFB2068C16941F00801C161206813
:10130000C16921F00401C1612068C1692A691143E2
:1013100011E0206800F07CFB2068C16941F40061A5
:10132000C1612068C16921F48061C1612068C1691F
:101330002A6941EA0221C161ACE710B5040003D07B
:1013400094F83D0010B107E0012010BD002084F8A2
:101350003C00204600F01EF8022084F83D00211DCC
:10136000206800F02BFA012084F8460084F83E0043
:1013700084F83F0084F8400084F8410084F842007B
:1013800084F8430084F8440084F8450084F83D0064
:10139000002010BD08B500680649884208D10648FB
:1013A000016841F001010160006800F00100009057
:1013B00008BD0000000001404438024070470000B2
:1013C00010B50446022249B104290ED0082913D0D1
:1013D00094F84100012816D0012010BD94F83E0079
:1013E0000128F9D184F83E200FE094F83F0001284D
:1013F000F2D184F83F2008E094F840000128EBD1B6
:1014000084F8402001E084F841200122206800F0A7
:1014100039FA16492068164A884201D0904203D111
:10142000436C43F4004343642068884213D0B0F116
:10143000804F10D00F4988420DD00F4988420AD002
:101440000E49884207D0904205D00D49884202D00B
:101450000C49884204D1816801F00701062903D0B4
:10146000016841F001010160002010BD0000014051
:10147000000401400004004000080040000C00404F
:10148000004001400018004070477047FEE7000030
:10149000114808B5016841F080010160016801F060
:1014A00080010091016841F001010160016801F0D3
:1014B00001010091016841F002010160016801F041
:1014C00002010091016841F010010160006800F024
:1014D0001000009008BD00003038024010B592B0F6
:1014E00000240F941C2168461094FEF734FF20213D
:1014F00007A8FEF730FF28482649C0E9001401215B
:10150000C0E90241046144618461FFF716FF08B13C
:1015100072B6FEE70F940FA91F481094FFF7DAFB8D
:1015200008B172B6FEE76020CDE900040420029401
:10153000CDE9034005940022694617480694FFF759
:1015400096FE08B172B6FEE7042269461248FFF71C
:101550008EFE08B172B6FEE7082269460E48FFF714
:1015600086FE08B172B6FEE70794089409944FF41A
:1015700000500A94CDE90B4007A907480E94FFF7E5
:101580007FFB08B172B6FEE70348FFF71FFE12B0FB
:1015900010BD0000000001407C00002010B586B0A6
:1015A00000241648009401940294039404944FF08C
:1015B0008041059401605321C0E901141321C0E961
:1015C00003148461FFF72EFC08B172B6FEE74FF4F6
:1015D0008050009069460948FFF7D6FC08B172B602
:1015E000FEE7049404A905480594FFF773FB00285F
:1015F00001D072B6FEE706B010BD0000C4000020A6
:1016000010B586B000241748009401940294039406
:1016100004941349059401604FF4E151C0E90114A9
:10162000BD21C0E903148461FFF7FCFB08B172B669
:10163000FEE74FF48050009069460A48FFF7A4FC8B
:1016400008B172B6FEE7049404A906480594FFF7B2
:1016500041FB002801D072B6FEE706B010BD0000C5
:10166000000400400C01002010B586B0002417488B
:101670000094019402940394049413490594016026
:101680004821C0E9011442F20F71C0E903148461DA
:10169000FFF7C8FB08B172B6FEE74FF48050009028
:1016A00069460A48FFF770FC08B172B6FEE7049479
:1016B00004A906480594FFF70DFB002801D072B677
:1016C000FEE706B010BD00000008004054010020F5
:1016D000FEE7FEE770477047FEF7A2BF30B593B054
:1016E00030216846FEF737FE14210CA8FEF733FEC2
:1016F0001D480025016841F080510160006800F03C
:10170000805011901948016841F4804101600068DF
:10171000022400F480401190012000900004019008
:101720008001CDE9064008AA0420A82182E8130020
:101730000B906846FFF7D8F808B172B6FEE70CA91F
:101740000F2081E831004FF4A0500F904FF48050EB
:10175000109005210CA8FEF7FDFF002801D072B6FD
:10176000FEE713B030BD000040380240007000407A
:101770000248016841F470010160704788ED00E0A3
:1017800010B50348FFF76FFCBDE8104000F076BDD0
:10179000C400002010B50348FFF765FCBDE8104009
:1017A00000F0BEBC0C01002010B50348FFF75BFC45
:1017B000BDE8104000F0B2BC54010020F0B5026852
:1017C000254C264D264E274F274B4FF0804CA042EC
:1017D00009D0604507D0A84205D0B04203D0B84236
:1017E00001D0984204D122F0700E4A6842EA0E02FB
:1017F000A0421BD0604519D0A84217D0B04215D0E6
:10180000B84213D0984211D0184DA8420ED0184DAE
:10181000A8420BD0174DA84208D0174DA84205D0BA
:10182000164DA84202D0164DA84203D122F44075AD
:10183000CA682A434D6922F080022A4302608A68FE
:10184000C2620A688262A04201D0984201D109694D
:10185000016301214161F0BD00000140000400402E
:1018600000080040000C004000040140004001401E
:10187000004401400048014000180040001C0040A6
:101880000020004010B501F01F030121046A9940B7
:101890008C430462016A9A401143016210BD10B585
:1018A00001F01F030421046A99408C430462016A19
:1018B0009A401143016210BD10B5846842EA0322C8
:1018C00024F47F440A432243826010BD826822F0E0
:1018D00070020A4342F0070181607047F0B5026A66
:1018E00022F001020262036A42688469124E24F007
:1018F00073050C682C4323F002058B682B430D4DB8
:10190000A84201D0B04205D123F00807CB683B4381
:1019100023F00403A84201D0B04205D14D6922F45E
:10192000407215438A692A43426084614968416371
:101930000362F0BD0000014000040140F0B5026AFE
:1019400022F010020262026A436884690D6824F47E
:10195000E64444EA05248D6822F0200242EA05129A
:101960000F4D104EA84201D0B04206D1CF6822F0F0
:10197000800242EA071222F04002A84201D0B0429F
:1019800007D14D6923F4406343EA85038D6943EA37
:10199000850343608461496881630262F0BD000091
:1019A0000000014000040140F0B5026A22F4807298
:1019B0000262026A4368C46922F4007224F073056B
:1019C0000C68124E2C438D6842EA05220E4DA84247
:1019D00001D0B04206D1CF6822F4006242EA072269
:1019E00022F48062A84201D0B04207D14D6923F4AD
:1019F000405343EA05138D6943EA05134360C4610C
:101A00004968C1630262F0BD00000140000401406A
:101A100030B5026A22F480520262046A4268C369E5
:101A20000D6823F4E64343EA05238D6824F400544B
:101A300044EA0534084DA84202D0084DA84204D11A
:101A40004D6922F4804242EA85124260C3614968CE
:101A50000164046230BD0000000001400004014048
:101A600010B5036A046A24F001040462846924F056
:101A7000F00444EA021423F00A020A438461026279
:101A800010BD10B5036A23F0100303628369046A72
:101A900023F4704343EA023224F0A00343EA011125
:101AA0008261016210BDFEE70907090E002804DB10
:101AB00000F1E02080F80014704700F00F0000F102
:101AC000E02080F8141D7047B5EEC00AF1EE10FA60
:101AD00004D210EE100A1B49884232D9B5EEC00A72
:101AE000DFED190A60EE200ABDEEE01A11EE100AD1
:101AF000F1EE10FA00D2401E00EE100A1449F7EE83
:101B0000001AB8EEC00A30EEC00ADFED100A60EE2F
:101B1000200ABCEEE00A10EE100AC0F3080000EE46
:101B2000100A01EB8000B8EE400A90ED011A70EE49
:101B3000C00A90ED000A71EEE01A21EE800A00EE74
:101B4000810A7047CD024CB483F9223E0000004464
:101B5000802D0008FEF76CFDFFF7C0FDFFF798FC35
:101B6000FFF7BCFCFFF71AFDFFF74AFDFFF77CFD0E
:101B700000F0C6F900212448FFF722FC0421224886
:101B8000FFF71EFC08212048FFF71AFC00211E4821
:101B9000FFF7E8F804211C48FFF7E4F808211A4889
:101BA000FFF7E0F818484830FFF7AEF916489030D4
:101BB000FFF7AAF91448D830FFF7A6F912484830C1
:101BC0000068C16841F00101C1600F4890300068B1
:101BD000C16841F00101C1600B48D8300068C1689C
:101BE00041F00101C16008484830FFF73CFA06485F
:101BF0009030FFF738FA0448D830FFF734FA00BFC6
:101C000000F004F8FCE700007C0000200B480021F5
:101C1000806902780A48302A05D0612A07D0622AF2
:101C200007D0632A07D041638163C163704700F026
:101C300009B800F0EDB800F06DB800000000002019
:101C40000000014010B52D4CDFED2B0A2DED068B69
:101C500094ED050A00F00EFAD4ED040ADFED288AAF
:101C6000B0EE408A9FED279A80EEA80A20EE090A7E
:101C700000F0FEF9B0EE40AA94ED040AC0EE280A86
:101C80009FED210A00EE890A00F0F2F9F0EE409A89
:101C900094ED040AC0EE280A9FED1C0A00EE890AA2
:101CA00000F0E6F9D4ED030AB0EE401A6AEE201A0D
:101CB00029EEA02A61EE200AB4EEE18AF1EE10FAD4
:101CC00001DD002100E0022111484163B4EEC28A27
:101CD000F1EE10FA01DD002100E002218163B4EE93
:101CE000E08AF1EE10FA01DD002100E00221C1637B
:101CF000BDEC068B10BD00000000B44300000020C6
:101D000000003443DB0F4940920A0640920A8640A5
:101D100000000140F0B53A4D85B00024A86969463D
:101D2000808A07281ED00B2839D1D5ED030A05F18A
:101D300044030020A3F1280203EB800494ED001A71
:101D400002EB800494ED000A01EB8004401C31EEAC
:101D5000401AC0B2052800EE810A84ED000AEBD3D8
:101D600001241CE0264B0020D5ED030A5833A3F1D3
:101D7000280200BF03EB800494ED001A02EB8004FC
:101D800094ED000A01EB8004401C31EE401AC0B211
:101D9000052800EE810A84ED000AEBD300242869AF
:101DA00000F072FF41EC100B2146684600F0C4F8C9
:101DB00095ED040ADFED130A074630EE200A10EE17
:101DC000100A00F061FF41EC100B2146684600F05C
:101DD000B3F895ED040ADFED0C0A064630EE200A52
:101DE00010EE100A00F050FF41EC100B214668463F
:101DF00000F0A2F805494F638E63C86305B0F0BDDB
:101E0000000000200000F04200007043000001408C
:101E100010B5334C2DED068BA069808A00F0C6FC0E
:101E200041EC100B53EC102B9FED2E0B51EC100BD3
:101E300000F064FB00F07CFA00EE900A94ED040AD6
:101E400000F018F9D4ED040ADFED288AB0EE408ADC
:101E50009FED279A80EEA80A20EE090A00F008F903
:101E6000F0EE409A94ED040AC0EE280A9FED210A94
:101E700000EE890A00F0FCF8B0EE40AA94ED040AE6
:101E8000C0EE280A9FED1C0A00EE890A00F0F0F867
:101E9000D4ED030A29EEA01A6AEE201A20EE200AD9
:101EA000B4EEC18AF1EE10FA01DD002100E002215A
:101EB00012484163B4EEE18AF1EE10FA01DD00212F
:101EC00000E002218163B4EEC08AF1EE10FA01DD78
:101ED000002100E00221C163BDEC068B10BD0000B3
:101EE0000000002000000000008076400000344325
:101EF000DB0F4940920A0640920A864000000140EA
:101F0000094833219FED090A017080ED010A9FED18
:101F1000080A084980ED020A80ED030A80ED040AF0
:101F200080ED050A816170470000002000007C42BE
:101F3000000000008435000870B50D462DED0A8BB9
:101F40000446B0EE409AF0EE609A9FED41CB9FEDD3
:101F5000428B9FED43AB9FED44BB53EC182B51ECF0
:101F6000190B00F071FD07D853EC182B51EC190B2D
:101F700000F0A0FD41EC190B53EC1A2BB0EE498A8E
:101F8000F0EE698A51EC180B00F05EFD07D853ECB7
:101F90001A2B51EC180B00F08DFD41EC180B53EC93
:101FA0001B2B51EC180B00F04FFD0FD853EC1B2BE3
:101FB00051EC180B00F07EFD41EC100B51EC1B0BAB
:101FC00053EC102B00F076FD41EC180B53EC1C2B5E
:101FD00051EC180B00F038FD07D8206800F054FED3
:101FE00053EC182B00F030FD1FD3606800F04CFE5E
:101FF00053EC182B00F0EEFB07D8A06800F044FE6D
:1020000053EC182B00F020FD0FD3E06800F03CFEED
:1020100053EC182B00F0DEFB0AD8206900F034FEE8
:1020200053EC182B00F010FD02D24FF0FF3400E00B
:10203000012453EC1A2B51EC190B00F005FD00D8CC
:10204000644205B16442BDEC0A8B641CE0B270BD11
:10205000000000000000000000000000008076404A
:102060000000000000806640000000000080564034
:10207000FFF72ABD9FED282A02E000BF30EE600A7C
:10208000B4EEE00AF1EE10FAF8DCB5EEC00AF1EEBB
:1020900010FA01D230EE800AB5EE001A60EE811A15
:1020A000B5EEC00AF1EE10FA07DBF4EEC01AF1EE5D
:1020B00010FA02DB80EE212A2AE0F0EE082AF4EE84
:1020C000C01A60EEA23AF5EE002AB7EE003A63EECF
:1020D000A22AF1EE10FA0BD8F4EEC02AF1EE10FAB3
:1020E00006DB00EEC10AC0EE210A33EE602A0FE0E3
:1020F000F4EEC02AF1EE10FA0AD8B4EEE00AF1EEDE
:1021000010FA05D803EEC10AC0EE210A30EEC32A48
:10211000B0EE420A70470000000000007047000067
:10212000514810B50146027891ED010A8969312ABA
:1021300002D0332A20D041E0DFED4C0A4C4C002283
:1021400030EE200A80ED010A02EB420304EBC303E8
:10215000D3ED010AF4EEC00AF1EE10FA07D2D3ED86
:10216000020AF4EEC00AF1EE10FA00DB1946521C26
:10217000D2B2062AE8D320E0DFED3E0A3C4C002232
:1021800030EE600A14F1900480ED010A02EB420384
:1021900004EBC303D3ED010AF4EEC00AF1EE10FA2A
:1021A00007D2D3ED020AF4EEC00AF1EE10FA00DB1A
:1021B0001946521CD2B2072AE8D381618169D1ED58
:1021C000020A91ED010A30EEC01AD0ED010A30EE9C
:1021D000C00AC0EE010A91ED041A91ED030A31EE36
:1021E000401A00EE810ADFED240A80ED020A90ED2C
:1021F000031AB4EEC01AF1EE10FA0AD231EE201A28
:1022000080ED031AB4EEC01AF1EE10FA01DD80ED94
:10221000030A90ED031AB4EEC01AF1EE10FA0ADDCB
:1022200071EE600AC0ED030AF4EEC00AF1EE10FA96
:1022300001D280ED030AC168B1F17E5F03DDF7EEE4
:10224000000AC0ED030AB5EEC00AF1EE10FA09D19A
:1022500090ED030AB5EEC00AF1EE10FA02D104497E
:102260001839816110BD000000000020CDCCCC3DAC
:102270009C350008295C8F3D0AD7233C70B5244C5F
:10228000DFED250A254D2DED048B94ED010A9FED20
:10229000218A20EE080A80EE201A94ED040A31EE1D
:1022A000000A10EE100A84ED040AA84203DB30EEA7
:1022B000480A84ED040AA0690178612925D1808A41
:1022C00000F074FA9FED161B53EC112B00F0BEFAD0
:1022D0009FED151B53EC112B00F010F941EC190B7D
:1022E000606900F0D1FC53EC192B00F053F800F0BA
:1022F0001FF800EE100A10EE100A84ED050AA8423D
:1023000003DB30EE480A84ED050ABDEC048B70BD9A
:10231000000000200000B443005043470000B443D5
:10232000000000000080764000000000006AE840E5
:1023300021F00042A2F16052B2F5801F01F000438B
:1023400028BFD2F17F6C0BD95FEA001C43EAC202BE
:1023500042EB507018BF704728BF20F00100704753
:10236000B2F5801FBCBF184670474FEA410C1CF500
:10237000001F02D2084600F0FDBC70B500F010FB53
:1023800000000089FFF7F6BF4FF00040A0F5800085
:102390007047000010B591EA030F48BF83F0004377
:1023A00000F19083841A71EB030C05D2121943EBF0
:1023B0000C03001B61EB0C01DFF824E14FEA115420
:1023C000A4EB135C1EEA430F18BF9EEA445F73D070
:1023D00023EA0E03DCF1200E21EA045143F48013BA
:1023E00032D322FA0CFE10EB0E0023FA0CFE41EB66
:1023F0000E01CCF1200E03FA0EFE10EB0E0051F18F
:102400000001B1F5801FCCF1200E32D201EB045156
:1024100012FA0EF2BDE8104058BF7047401C38BF9A
:102420005FEA420218BF7047002814BF20F0010085
:1024300041F100014FEA410313F5001F38BF704717
:10244000A1F1C04100F0FABA012A43EB0302ACF15A
:10245000200CDCF11F0E32BF4FF0000E23FA0CF3FC
:1024600010EB030041EB0451B4EB115FD0D0A1EBB2
:10247000045101F5801149085FEA300001EB045175
:102480000ED350F1000038BF12FA0EFE08D1BDE89D
:102490001040C9E7401C38BF5FEA4202CAD1C3E717
:1024A000BDE810404FEA410313F5001F38BF7047E5
:1024B000A1F1C04100F0C2BA9EEA445F08D011EA1F
:1024C0005E0FBDE8104004BF01F0004100207047DE
:1024D000BDE8104070B500F063FA00BF64FBBE3E7B
:1024E0000000E0FF491058BFC1F140415B1058BFE8
:1024F000C3F140438B42EFF3008070472DE9C041A8
:1025000030B4DFF8A0C23CEA111418BF3CEA13143F
:1025100000F0EC8081EA03051CEA111444EAD5744A
:1025200018BF1CEA131500F0C780A4EB05044FF098
:10253000004545EAC12145EAC32341EA505143EA37
:10254000525304F17F74994204F500344FEAC020DD
:102550004FEAC22208BF904200F09C804FEA136508
:102560000FF24016765D4FEA134506FB05F7C7F1FB
:10257000807706FB07F74FEAD737A7FB0368764259
:10258000C8F58038A7FB06CE38BFA8F1010807FBC5
:1025900008E64FF0000EA6FB028CE6FB03CEDCF152
:1025A000000CCEF1004E38BFAEF1010EA6FB0C5868
:1025B0004FF000074FF00005E6FB0E87A1FB08C6B1
:1025C000A0FB07CE16EB0E0645F10005E1FB076503
:1025D00015F1E04E7EBFA4F580345FEA46066D41FA
:1025E00016F1800745F100054FEA17274FEA066606
:1025F00047EA0567A6F1DE46B6F1805F4FEA15258A
:102600001FD9384624F0010C05EBC471BCF1FE6FF4
:1026100001EB0C1102D8F0BCBDE8008124425CBF84
:1026200001F5801E9EEAC47F02D4F0BCBDE80081A3
:10263000244238D4F0BCA1F1C041BDE8004100F013
:10264000FDB94FEAD22242EA43524FEAD323A7FB15
:1026500002864FEAD02040EA415007FB03661EEA9B
:102660000E0F4FEAD12105FB026658BFA6EB0056BC
:10267000B6EB00564FEA520E4EEAC37E18EB0E0E32
:1026800056EB530EBDD518EB02085E417F1C55F189
:102690000005B6E74FF480154FF000074FF0000635
:1026A0004FF00008ADE7F0BC4FF0000001F1C04171
:1026B00001F00041BDE8008111EA0C1F0CEA13157E
:1026C00000D00CE013EA0C1F00F025804FF0000052
:1026D000F0BC81EA030101F00041BDE80081F0BCDB
:1026E000BDE8004181EA030100F0A8B9F0BCBDE8F3
:1026F000004170B500F054F9097EFC3E00F007B8C7
:1027000081EA03014FF0000001F00041704781EAC7
:10271000030100F093B9F0BCBDE800414FF00000A8
:1027200021497047FFFDFBF9F7F5F4F2F0EEEDEB10
:10273000E9E8E6E4E3E1E0DEDDDBDAD8D7D5D4D3BF
:10274000D1D0CFCDCCCBCAC8C7C6C5C4C2C1C0BF0B
:10275000BEBDBCBBBAB9B8B7B6B5B4B3B2B1B0AF11
:10276000AEADACABAAA9A8A8A7A6A5A4A3A3A2A1F5
:10277000A09F9F9E9D9C9C9B9A99999897979695B0
:1027800095949393929191908F8F8E8E8D8C8C8B4C
:102790008B8A8989888887878685858484838382D4
:1027A000828181800000FF070000F87FB0FA80F38B
:1027B00010FA03F10AD0C3F11D0303F580634FEA59
:1027C00041504FEA035202EBD12170474FF0000015
:1027D0007047000051EA030C17D41CF5801F58BF46
:1027E000BCF5801F00F10680994218BF704708BFF2
:1027F0009042704707D711F5801F58BF13F5801F0F
:1028000019D499427047894270471CF5801F08D53A
:10281000BCF5801FF7D58B4218BF704708BF8242B6
:1028200070474FF4001C1CEB410F38BF1CEB430FEB
:1028300001D28B42704770B500F0B2F89224490083
:102840004FF000514FF08053FFF74CBEDFF848C106
:1028500070B51CEA111E1EBF1CEA13159EEA0C0F70
:1028600095EA0C0F00F06F8081EA030423EA4C1311
:102870004EEAD47E21EA4C1141F4801143F48013D6
:10288000AE44A1FB024CA0FB0365AEF17F7E36197E
:1028900055EB0C05A1FB034C4CF10003A0FB021C03
:1028A00016EB0C06654153F10003094218BF46F0D0
:1028B000010613F4007F0BD14FEA03314FEA0530D4
:1028C000340341EA155140EA16506FF003020AE062
:1028D0004FEAC3214FEAC520F40241EA555140EACC
:1028E00056506FF0020202EB2E4201EB025585EAD0
:1028F000CE710AD05FEA440C18BF24F0004450F1B6
:10290000000041F1000120EAD47040F2FE7C6245F3
:1029100000D270BDA84214BF4FF080444FF0404435
:10292000002E08BF0024BEF1806FA8BFA1F1C041F6
:10293000BDE8704080F282804FF0000001F1C0419C
:1029400001F0004170479EEA0C0F0CEA131518BF06
:1029500095EA0C0F06D04FF0000081EA030E0EF04E
:10296000004170BD00F01CF88900013E00F007B87E
:1029700000F009B84FEA430C5FEA5C5C08D081EADA
:10298000030100F05BB84FEA410C5FEA5C5CF6D1F2
:102990004FF00000014970470000FF070000F87F7A
:1029A0000EF1020E2EF0030E5EF8046B364205D4D3
:1029B000012A43EB030515F5001F12D8012841EB4E
:1029C000010C1CF5001F0CD80ED14FEAD17C15F577
:1029D000001F0CEB4C0C0CF1020C08BF4CEBD37C31
:1029E00004E04FF0080C01E04FEAD37C0CEB4C05FF
:1029F00026FA05F606F00706B6F1040C06D20EEB31
:102A0000860CBDE870404CF0010C6047DFE80CF02C
:102A1000090B02024FF000414FF00000A1F5002128
:102A200070BD19461046012851EB010418BFD4F5BA
:102A3000001484BF002001F0004170BD0808A0F51B
:102A400000114FEA3101704753EA010C17D41CF50D
:102A5000801F58BFBCF5801F00F106808B4218BF55
:102A6000704708BF8242704707D713F5801F58BFD1
:102A700011F5801F19D48B4270479B4270471CF59B
:102A8000801F08D5BCF5801FF7D5994218BF704745
:102A900008BF904270474FF4001C1CEB430F38BF37
:102AA0001CEB410F01D2994270470FB40CBC03BC20
:102AB000FFF7C1BE10B591EA030F48BF83F0004392
:102AC0003FF570AC841A71EB030C07D212198CF02D
:102AD000004C43EB0C03001B61EB0C01DFF8A4E19D
:102AE0004FEA1154A4EB135C1EEA430F18BF9EEA91
:102AF000445F00F0B08023EA6E03524221EA0451A1
:102B0000C3EB6E0338BF5B1EDCF1200E25D322FA27
:102B10000CFE10EB0E0043FA0CFE41EB0E01CCF163
:102B2000200E03FA0EFE10EB0E0051F10001CCF165
:102B3000200E29D412FA0EF201EB0451BDE8104028
:102B400058BF7047401C1CBFB2F1004F70470028AF
:102B50000CBF491C20F00100704712EB020E43EB42
:102B6000030218BF4FF0010E4EEA4202ACF1200CF6
:102B7000DCF11E0E54D943FA0CFE10EB0E0051F19D
:102B8000FF31CCF11E0ED5D50EF1010E12FA0EFE5C
:102B9000404141EB010101EB445C5FEA5C5C10D910
:102BA00010EBDE7001EB045138BFBEF1004FBDE801
:102BB000104018BF704700280CBF491C20F00100CE
:102BC000704730D24FEAD42C11F5001124F4006480
:102BD0001BD0B1FA81F20B3AA41AA41ED2F1200341
:102BE000914030FA03F31943904001EBCC71002C73
:102BF00001EB0451BDE81040A8BF704701F1C0418E
:102C00004FF0000001F000417047B0FA80F310FA75
:102C100003F100D110BDE41A173C4805C90AE4E7E6
:102C200001EB045110BD491001EB0451BDE8104007
:102C30004FEA300002E04FF0000170474A0008BF41
:102C40000042F8D0B2F5001F28BF704701F00041E4
:102C50004FF0000070479EEA445F07D011EA5E0F14
:102C6000BDE8104004BF002100207047BDE81040BF
:102C700070B5FFF795FE00BF40DFF63E83F00041E0
:102C8000104670470000E0FF43004FEAD30C4FEAC4
:102C90003C0C43401FBF40070CF1605113F0FE4F46
:102CA00070471CF0006F03D100200CF0004170470A
:102CB0000CF0004343EA507010B540EACC0000F03D
:102CC0000EF800BF000000924FEA0001FFF7B6BE09
:102CD0004FF000414FF00000A1F5002170470EF1C8
:102CE000020E2EF0030E5EF8044B244204D44FEA89
:102CF0004102B2F17F4F11D84FEA4003B3F17F4F49
:102D00000CD80ED14FEAD07CB2F17F4F0CEB4C0CBB
:102D10000CF1020C08BF4CEBD17C04E04FF0080C26
:102D200001E04FEAD17C0CEB4C0324FA03F404F0ED
:102D30000704B4F1040C06D20EEB840CBDE810407D
:102D40004CF0010C6047DFE80CF0070802024FF07E
:102D50000040A0F5800010BD0846420018BFD2F127
:102D6000807288BF00F0004010BD4FF04070E1EE6F
:102D7000100A7047FF2141EAD050C005704700009B
:102D800000000000920E493CB10AC93C2BC3163D1D
:102D90002EFB483D752B7B3D04A9963D80B6AF3D8B
:102DA00036BDC83D2FBCE13D73B2FA3D87CF093E29
:102DB0008340163EB5AB223EA2102F3ECF6E3B3E67
:102DC000C2C5473E0115543E135C603E7F9A6C3E7F
:102DD000CCCF783EC07D823E938E883E229A8E3E36
:102DE00032A0943E86A09A3EE59AA03E128FA63E5F
:102DF000D47CAC3EEF63B23E2A44B83E491DBE3E91
:102E000015EFC33E53B9C93ECA7BCF3E4136D53ECE
:102E100080E8DA3E4F92E03E7533E63EBBCBEB3EB8
:102E2000EA5AF13ECBE0F63E275DFC3EE4E7003F88
:102E30003D9C033F824B063F9BF5083F6B9A0B3F3F
:102E4000DA390E3FCDD3103F2A68133FD9F6153F2C
:102E5000C07F183FC6021B3FD17F1D3FCBF61F3FEF
:102E60009967223F25D2243F5636273F1594293FA4
:102E70004AEB2B3FDE3B2E3FBB85303FC9C8323F7C
:102E8000F304353F233A373F4268393F3B8F3B3F9E
:102E9000F9AE3D3F67C73F3F70D8413F01E2433F36
:102EA00003E4453F65DE473F12D1493FF8BB4B3F46
:102EB000029F4D3F207A4F3F3D4D513F4918533FB0
:102EC00031DB543FE595563F5348583F6AF2593F2E
:102ED0001A945B3F532D5D3F05BE5E3F2146603F28
:102EE00097C5613F5A3C633F59AA643F880F663FCC
:102EF000D86B673F3CBF683FA7096A3F0C4B6B3FED
:102F00005E836C3F93B26D3F9ED86E3F73F56F3F0B
:102F10000809713F5213723F4714733FDD0B743F32
:102F20000BFA743FC6DE753F07BA763FC58B773F15
:102F3000F853783F9812793F9DC7793F02737A3FE3
:102F4000BE147B3FCDAC7B3F283B7C3FC9BF7C3F61
:102F5000AC3A7D3FCCAB7D3F23137E3FB0707E3FCC
:102F60006DC47E3F580E7F3F6D4E7F3FAB847F3FE9
:102F70000FB17F3F97D37F3F43EC7F3F11FB7F3FF4
:102F80000000803F11FB7F3F43EC7F3F97D37F3FA3
:102F90000FB17F3FAB847F3F6D4E7F3F580E7F3F29
:102FA0006DC47E3FB0707E3F23137E3FCCAB7D3F30
:102FB000AC3A7D3FC9BF7C3F283B7C3FCDAC7B3FDB
:102FC000BE147B3F02737A3F9DC7793F9812793FC9
:102FD000F853783FC58B773F07BA763FC6DE753F1B
:102FE0000BFA743FDD0B743F4714733F5213723F6B
:102FF0000809713F73F56F3F9ED86E3F93B26D3FE6
:103000005E836C3F0C4B6B3FA7096A3F3CBF683F38
:10301000D86B673F880F663F59AA643F5A3C633FAD
:1030200097C5613F2146603F05BE5E3F532D5D3F22
:103030001A945B3F6AF2593F5348583FE595563F13
:1030400031DB543F4918533F3D4D513F207A4F3FAC
:10305000029F4D3FF8BB4B3F12D1493F65DE473FD2
:1030600003E4453F01E2433F70D8413F67C73F3F1C
:10307000F9AE3D3F3B8F3B3F4268393F233A373FF4
:10308000F304353FC9C8323FBB85303FDE3B2E3F9E
:103090004AEB2B3F1594293F5636273F25D2243F34
:1030A0009967223FCBF61F3FD17F1D3FC6021B3FD2
:1030B000C07F183FD9F6153F2A68133FCDD3103F84
:1030C000DA390E3F6B9A0B3F9BF5083F824B063F68
:1030D0003D9C033FE4E7003F275DFC3ECBE0F63E2E
:1030E000EA5AF13EBBCBEB3E7533E63E4F92E03EF3
:1030F00080E8DA3E4136D53ECA7BCF3E53B9C93E61
:1031000015EFC33E491DBE3E2A44B83EEF63B23EB2
:10311000D47CAC3E128FA63EE59AA03E86A09A3E95
:1031200032A0943E229A8E3E938E883EC07D823E8F
:10313000CCCF783E7F9A6C3E135C603E0115543EC6
:10314000C2C5473ECF6E3B3EA2102F3EB5AB223EDE
:103150008340163E87CF093E73B2FA3D2FBCE13D56
:1031600036BDC83D80B6AF3D04A9963D752B7B3D6D
:103170002EFB483D2BC3163DB10AC93C920E493C7B
:1031800000000000920E49BCB10AC9BC2BC316BD99
:103190002EFB48BD752B7BBD04A996BD80B6AFBD87
:1031A00036BDC8BD2FBCE1BD73B2FABD87CF09BE25
:1031B000834016BEB5AB22BEA2102FBECF6E3BBE63
:1031C000C2C547BE011554BE135C60BE7F9A6CBE7B
:1031D000CCCF78BEC07D82BE938E88BE229A8EBE32
:1031E00032A094BE86A09ABEE59AA0BE128FA6BE5B
:1031F000D47CACBEEF63B2BE2A44B8BE491DBEBE8D
:1032000015EFC3BE53B9C9BECA7BCFBE4136D5BECA
:1032100080E8DABE4F92E0BE7533E6BEBBCBEBBEB4
:10322000EA5AF1BECBE0F6BE275DFCBEE4E700BF84
:103230003D9C03BF824B06BF9BF508BF6B9A0BBF3B
:10324000DA390EBFCDD310BF2A6813BFD9F615BF28
:10325000C07F18BFC6021BBFD17F1DBFCBF61FBFEB
:10326000996722BF25D224BF563627BF159429BFA0
:103270004AEB2BBFDE3B2EBFBB8530BFC9C832BF78
:10328000F30435BF233A37BF426839BF3B8F3BBF9A
:10329000F9AE3DBF67C73FBF70D841BF01E243BF32
:1032A00003E445BF65DE47BF12D149BFF8BB4BBF42
:1032B000029F4DBF207A4FBF3D4D51BF491853BFAC
:1032C00031DB54BFE59556BF534858BF6AF259BF2A
:1032D0001A945BBF532D5DBF05BE5EBF214660BF24
:1032E00097C561BF5A3C63BF59AA64BF880F66BFC8
:1032F000D86B67BF3CBF68BFA7096ABF0C4B6BBFE9
:103300005E836CBF93B26DBF9ED86EBF73F56FBF07
:10331000080971BF521372BF471473BFDD0B74BF2E
:103320000BFA74BFC6DE75BF07BA76BFC58B77BF11
:10333000F85378BF981279BF9DC779BF02737ABFDF
:10334000BE147BBFCDAC7BBF283B7CBFC9BF7CBF5D
:10335000AC3A7DBFCCAB7DBF23137EBFB0707EBFC8
:103360006DC47EBF580E7FBF6D4E7FBFAB847FBFE5
:103370000FB17FBF97D37FBF43EC7FBF11FB7FBFF0
:10338000000080BF11FB7FBF43EC7FBF97D37FBF9F
:103390000FB17FBFAB847FBF6D4E7FBF580E7FBF25
:1033A0006DC47EBFB0707EBF23137EBFCCAB7DBF2C
:1033B000AC3A7DBFC9BF7CBF283B7CBFCDAC7BBFD7
:1033C000BE147BBF02737ABF9DC779BF981279BFC5
:1033D000F85378BFC58B77BF07BA76BFC6DE75BF17
:1033E0000BFA74BFDD0B74BF471473BF521372BF67
:1033F000080971BF73F56FBF9ED86EBF93B26DBFE2
:103400005E836CBF0C4B6BBFA7096ABF3CBF68BF34
:10341000D86B67BF880F66BF59AA64BF5A3C63BFA9
:1034200097C561BF214660BF05BE5EBF532D5DBF1E
:103430001A945BBF6AF259BF534858BFE59556BF0F
:1034400031DB54BF491853BF3D4D51BF207A4FBFA8
:10345000029F4DBFF8BB4BBF12D149BF65DE47BFCE
:1034600003E445BF01E243BF70D841BF67C73FBF18
:10347000F9AE3DBF3B8F3BBF426839BF233A37BFF0
:10348000F30435BFC9C832BFBB8530BFDE3B2EBF9A
:103490004AEB2BBF159429BF563627BF25D224BF30
:1034A000996722BFCBF61FBFD17F1DBFC6021BBFCE
:1034B000C07F18BFD9F615BF2A6813BFCDD310BF80
:1034C000DA390EBF6B9A0BBF9BF508BF824B06BF64
:1034D0003D9C03BFE4E700BF275DFCBECBE0F6BE2A
:1034E000EA5AF1BEBBCBEBBE7533E6BE4F92E0BEEF
:1034F00080E8DABE4136D5BECA7BCFBE53B9C9BE5D
:1035000015EFC3BE491DBEBE2A44B8BEEF63B2BEAE
:10351000D47CACBE128FA6BEE59AA0BE86A09ABE91
:1035200032A094BE229A8EBE938E88BEC07D82BE8B
:10353000CCCF78BE7F9A6CBE135C60BE011554BEC2
:10354000C2C547BECF6E3BBEA2102FBEB5AB22BEDA
:10355000834016BE87CF09BE73B2FABD2FBCE1BD52
:1035600036BDC8BD80B6AFBD04A996BD752B7BBD69
:103570002EFB48BD2BC316BDB10AC9BC920E49BC77
:1035800000000080300000000000000000009643B2
:1035900000000000000000000000000061000000CA
:1035A00000000000000060410000003F0000003FFC
:1035B0002C01000061000000000060410000E041BB
:1035C0000000003F0000003F90010000620000008A
:1035D0000000E041000028420000003F0000003FE2
:1035E0001500000062000000000028420000684250
:1035F0000000003F3333333F0F0000006300000042
:10360000000068420000B2423333333F6666663FD3
:103610000B000000630000000000B242000096436F
:103620000000803F0000803F0700000061000000B4
:10363000000000000000E04000000000000000006A
:103640002C010000610000000000E040000030415B
:103650008FC2F53CCDCCCC3D2C01000061000000B8
:10366000000030410000AC41CDCCCC3DCDCC4C3E37
:1036700090010000620000000000AC4133331542AD
:10368000CDCC4C3ECDCCCC3E1500000062000000FD
:103690003333154200005642CDCCCC3E0000003FF3
:1036A0000F00000063000000000056420000B2421C
:1036B0000000003FCDCC4C3F0B0000006300000039
:1036C0000000B242000096430000803F0000803FAF
:1036D00007000000000000000000000001020304D9
:1036E0000607080904370008000000207C000000DD
:1036F000C4010008803700087C0000208407000017
:10370000E0010008000000000000000000000000D0
:1037100000000000000000000000000000000000A9
:10372000000000000000A0410000204200007042A4
:103730000000A04200000000000070420000B442FF
:103740000000B4420000B442DFCD02412688784137
:103750005F564042A7754C42CC56AF425D750C4156
:10376000A5359542EC6FA0420000B4420000B4427F
:103770000100000010000000000000000024F40020
:040000050800018965
:00000001FF
